{
  "contractName": "TemplateApps",
  "abi": [
    {
      "constant": true,
      "inputs": [],
      "name": "ens",
      "outputs": [
        {
          "name": "",
          "type": "address"
        }
      ],
      "payable": false,
      "stateMutability": "view",
      "type": "function"
    },
    {
      "inputs": [
        {
          "name": "_ens",
          "type": "address"
        }
      ],
      "payable": false,
      "stateMutability": "nonpayable",
      "type": "constructor"
    },
    {
      "anonymous": false,
      "inputs": [
        {
          "indexed": false,
          "name": "appProxy",
          "type": "address"
        },
        {
          "indexed": false,
          "name": "appId",
          "type": "bytes32"
        }
      ],
      "name": "InstalledApp",
      "type": "event"
    },
    {
      "constant": false,
      "inputs": [
        {
          "name": "_dao",
          "type": "address"
        },
        {
          "name": "_voting",
          "type": "address"
        },
        {
          "name": "_contribManager",
          "type": "address"
        },
        {
          "name": "_currencyManager",
          "type": "address"
        }
      ],
      "name": "install",
      "outputs": [],
      "payable": false,
      "stateMutability": "nonpayable",
      "type": "function"
    },
    {
      "constant": true,
      "inputs": [
        {
          "name": "appId",
          "type": "bytes32"
        }
      ],
      "name": "latestVersionAppBase",
      "outputs": [
        {
          "name": "base",
          "type": "address"
        }
      ],
      "payable": false,
      "stateMutability": "view",
      "type": "function"
    }
  ],
  "bytecode": "0x608060405234801561001057600080fd5b50604051602080612b8a83398101806040528101908080519060200190929190505050806000806101000a81548173ffffffffffffffffffffffffffffffffffffffff021916908373ffffffffffffffffffffffffffffffffffffffff16021790555050612b07806100836000396000f300608060405260043610610057576000357c0100000000000000000000000000000000000000000000000000000000900463ffffffff1680633f15457f1461005c578063c6d2c717146100b3578063dc333e4814610124575b600080fd5b34801561006857600080fd5b506100716101c7565b604051808273ffffffffffffffffffffffffffffffffffffffff1673ffffffffffffffffffffffffffffffffffffffff16815260200191505060405180910390f35b3480156100bf57600080fd5b506100e260048036038101908080356000191690602001909291905050506101ec565b604051808273ffffffffffffffffffffffffffffffffffffffff1673ffffffffffffffffffffffffffffffffffffffff16815260200191505060405180910390f35b34801561013057600080fd5b506101c5600480360381019080803573ffffffffffffffffffffffffffffffffffffffff169060200190929190803573ffffffffffffffffffffffffffffffffffffffff169060200190929190803573ffffffffffffffffffffffffffffffffffffffff169060200190929190803573ffffffffffffffffffffffffffffffffffffffff16906020019092919050505061048b565b005b6000809054906101000a900473ffffffffffffffffffffffffffffffffffffffff1681565b6000806000809054906101000a900473ffffffffffffffffffffffffffffffffffffffff1673ffffffffffffffffffffffffffffffffffffffff16630178b8bf846040518263ffffffff167c0100000000000000000000000000000000000000000000000000000000028152600401808260001916600019168152602001915050602060405180830381600087803b15801561028757600080fd5b505af115801561029b573d6000803e3d6000fd5b505050506040513d60208110156102b157600080fd5b810190808051906020019092919050505073ffffffffffffffffffffffffffffffffffffffff16633b3b57de846040518263ffffffff167c0100000000000000000000000000000000000000000000000000000000028152600401808260001916600019168152602001915050602060405180830381600087803b15801561033857600080fd5b505af115801561034c573d6000803e3d6000fd5b505050506040513d602081101561036257600080fd5b810190808051906020019092919050505090508073ffffffffffffffffffffffffffffffffffffffff1663c36af4606040518163ffffffff167c0100000000000000000000000000000000000000000000000000000000028152600401600060405180830381600087803b1580156103d957600080fd5b505af11580156103ed573d6000803e3d6000fd5b505050506040513d6000823e3d601f19601f8201168201806040525060a081101561041757600080fd5b8101908091908260600180519060200190929190805164010000000081111561043f57600080fd5b8281019050602081018481111561045557600080fd5b815185600182028301116401000000008211171561047257600080fd5b5050929190505050909150508092505081915050919050565b6000806000808773ffffffffffffffffffffffffffffffffffffffff1663de2873596040518163ffffffff167c0100000000000000000000000000000000000000000000000000000000028152600401602060405180830381600087803b1580156104f557600080fd5b505af1158015610509573d6000803e3d6000fd5b505050506040513d602081101561051f57600080fd5b810190808051906020019092919050505093508773ffffffffffffffffffffffffffffffffffffffff166380cd5ac37fa9e4c5b47fe3f0e61f6a7a045848bf59d44a5eaad3fbb6274929030a2030797d60010261059e7fa9e4c5b47fe3f0e61f6a7a045848bf59d44a5eaad3fbb6274929030a2030797d6001026101ec565b6040518363ffffffff167c01000000000000000000000000000000000000000000000000000000000281526004018083600019166000191681526020018273ffffffffffffffffffffffffffffffffffffffff1673ffffffffffffffffffffffffffffffffffffffff16815260200192505050602060405180830381600087803b15801561062b57600080fd5b505af115801561063f573d6000803e3d6000fd5b505050506040513d602081101561065557600080fd5b810190808051906020019092919050505092508773ffffffffffffffffffffffffffffffffffffffff166380cd5ac37f67c5438d71d05e58f99e88d6fb61ea5356b0f57106d3aba65c823267cc1cd07e6001026106d47f67c5438d71d05e58f99e88d6fb61ea5356b0f57106d3aba65c823267cc1cd07e6001026101ec565b6040518363ffffffff167c01000000000000000000000000000000000000000000000000000000000281526004018083600019166000191681526020018273ffffffffffffffffffffffffffffffffffffffff1673ffffffffffffffffffffffffffffffffffffffff16815260200192505050602060405180830381600087803b15801561076157600080fd5b505af1158015610775573d6000803e3d6000fd5b505050506040513d602081101561078b57600080fd5b810190808051906020019092919050505091508773ffffffffffffffffffffffffffffffffffffffff166380cd5ac37fb6461185219d266fa4eb5f1acad9b08a010bfd1e1f6a45fe3e169f161d8d5af160010261080a7fb6461185219d266fa4eb5f1acad9b08a010bfd1e1f6a45fe3e169f161d8d5af16001026101ec565b6040518363ffffffff167c01000000000000000000000000000000000000000000000000000000000281526004018083600019166000191681526020018273ffffffffffffffffffffffffffffffffffffffff1673ffffffffffffffffffffffffffffffffffffffff16815260200192505050602060405180830381600087803b15801561089757600080fd5b505af11580156108ab573d6000803e3d6000fd5b505050506040513d60208110156108c157600080fd5b810190808051906020019092919050505090508273ffffffffffffffffffffffffffffffffffffffff1663485cc95587876040518363ffffffff167c0100000000000000000000000000000000000000000000000000000000028152600401808373ffffffffffffffffffffffffffffffffffffffff1673ffffffffffffffffffffffffffffffffffffffff1681526020018273ffffffffffffffffffffffffffffffffffffffff1673ffffffffffffffffffffffffffffffffffffffff16815260200192505050600060405180830381600087803b1580156109a357600080fd5b505af11580156109b7573d6000803e3d6000fd5b505050507f2b183a501d4b1bbd30e6611ebac40ab18a00390e6c6bed324bf92a265c9ce6e3837fa9e4c5b47fe3f0e61f6a7a045848bf59d44a5eaad3fbb6274929030a2030797d600102604051808373ffffffffffffffffffffffffffffffffffffffff1673ffffffffffffffffffffffffffffffffffffffff16815260200182600019166000191681526020019250505060405180910390a18173ffffffffffffffffffffffffffffffffffffffff1663a73dbc4e86670de0b6b3a7640000606402670de0b6b3a7640000600a02670de0b6b3a7640000603202603c80603c6040518863ffffffff167c0100000000000000000000000000000000000000000000000000000000028152600401808873ffffffffffffffffffffffffffffffffffffffff1673ffffffffffffffffffffffffffffffffffffffff1681526020018781526020018681526020018581526020018467ffffffffffffffff1667ffffffffffffffff1681526020018367ffffffffffffffff1667ffffffffffffffff1681526020018267ffffffffffffffff1667ffffffffffffffff168152602001975050505050505050600060405180830381600087803b158015610b7b57600080fd5b505af1158015610b8f573d6000803e3d6000fd5b505050507f2b183a501d4b1bbd30e6611ebac40ab18a00390e6c6bed324bf92a265c9ce6e3827f67c5438d71d05e58f99e88d6fb61ea5356b0f57106d3aba65c823267cc1cd07e600102604051808373ffffffffffffffffffffffffffffffffffffffff1673ffffffffffffffffffffffffffffffffffffffff16815260200182600019166000191681526020019250505060405180910390a18073ffffffffffffffffffffffffffffffffffffffff1663d32ce5ae86670de0b6b3a76400006127100262278d006040518463ffffffff167c0100000000000000000000000000000000000000000000000000000000028152600401808473ffffffffffffffffffffffffffffffffffffffff1673ffffffffffffffffffffffffffffffffffffffff1681526020018381526020018267ffffffffffffffff1667ffffffffffffffff1681526020019350505050600060405180830381600087803b158015610cf757600080fd5b505af1158015610d0b573d6000803e3d6000fd5b505050507f2b183a501d4b1bbd30e6611ebac40ab18a00390e6c6bed324bf92a265c9ce6e3817fb6461185219d266fa4eb5f1acad9b08a010bfd1e1f6a45fe3e169f161d8d5af1600102604051808373ffffffffffffffffffffffffffffffffffffffff1673ffffffffffffffffffffffffffffffffffffffff16815260200182600019166000191681526020019250505060405180910390a1610db58885898989888888610dbf565b5050505050505050565b6000806000808b73ffffffffffffffffffffffffffffffffffffffff16638ea8dc9d6040518163ffffffff167c0100000000000000000000000000000000000000000000000000000000028152600401602060405180830381600087803b158015610e2957600080fd5b505af1158015610e3d573d6000803e3d6000fd5b505050506040513d6020811015610e5357600080fd5b810190808051906020019092919050505093508a73ffffffffffffffffffffffffffffffffffffffff16633d6ab68f6040518163ffffffff167c0100000000000000000000000000000000000000000000000000000000028152600401602060405180830381600087803b158015610eca57600080fd5b505af1158015610ede573d6000803e3d6000fd5b505050506040513d6020811015610ef457600080fd5b810190808051906020019092919050505092508773ffffffffffffffffffffffffffffffffffffffff1663e9a9c8506040518163ffffffff167c0100000000000000000000000000000000000000000000000000000000028152600401602060405180830381600087803b158015610f6b57600080fd5b505af1158015610f7f573d6000803e3d6000fd5b505050506040513d6020811015610f9557600080fd5b810190808051906020019092919050505091508773ffffffffffffffffffffffffffffffffffffffff1663b930908f6040518163ffffffff167c0100000000000000000000000000000000000000000000000000000000028152600401602060405180830381600087803b15801561100c57600080fd5b505af1158015611020573d6000803e3d6000fd5b505050506040513d602081101561103657600080fd5b810190808051906020019092919050505090508a73ffffffffffffffffffffffffffffffffffffffff1663be038478878a85306040518563ffffffff167c0100000000000000000000000000000000000000000000000000000000028152600401808573ffffffffffffffffffffffffffffffffffffffff1673ffffffffffffffffffffffffffffffffffffffff1681526020018473ffffffffffffffffffffffffffffffffffffffff1673ffffffffffffffffffffffffffffffffffffffff16815260200183600019166000191681526020018273ffffffffffffffffffffffffffffffffffffffff1673ffffffffffffffffffffffffffffffffffffffff168152602001945050505050600060405180830381600087803b15801561115c57600080fd5b505af1158015611170573d6000803e3d6000fd5b505050508a73ffffffffffffffffffffffffffffffffffffffff1663be038478878a84306040518563ffffffff167c0100000000000000000000000000000000000000000000000000000000028152600401808573ffffffffffffffffffffffffffffffffffffffff1673ffffffffffffffffffffffffffffffffffffffff1681526020018473ffffffffffffffffffffffffffffffffffffffff1673ffffffffffffffffffffffffffffffffffffffff16815260200183600019166000191681526020018273ffffffffffffffffffffffffffffffffffffffff1673ffffffffffffffffffffffffffffffffffffffff168152602001945050505050600060405180830381600087803b15801561128757600080fd5b505af115801561129b573d6000803e3d6000fd5b505050508a73ffffffffffffffffffffffffffffffffffffffff1663be038478888b8c73ffffffffffffffffffffffffffffffffffffffff1663e9a9c8506040518163ffffffff167c0100000000000000000000000000000000000000000000000000000000028152600401602060405180830381600087803b15801561132157600080fd5b505af1158015611335573d6000803e3d6000fd5b505050506040513d602081101561134b57600080fd5b81019080805190602001909291905050508e6040518563ffffffff167c0100000000000000000000000000000000000000000000000000000000028152600401808573ffffffffffffffffffffffffffffffffffffffff1673ffffffffffffffffffffffffffffffffffffffff1681526020018473ffffffffffffffffffffffffffffffffffffffff1673ffffffffffffffffffffffffffffffffffffffff16815260200183600019166000191681526020018273ffffffffffffffffffffffffffffffffffffffff1673ffffffffffffffffffffffffffffffffffffffff168152602001945050505050600060405180830381600087803b15801561145057600080fd5b505af1158015611464573d6000803e3d6000fd5b505050508a73ffffffffffffffffffffffffffffffffffffffff16630a8ed3db888a856040518463ffffffff167c0100000000000000000000000000000000000000000000000000000000028152600401808473ffffffffffffffffffffffffffffffffffffffff1673ffffffffffffffffffffffffffffffffffffffff1681526020018373ffffffffffffffffffffffffffffffffffffffff1673ffffffffffffffffffffffffffffffffffffffff16815260200182600019166000191681526020019350505050600060405180830381600087803b15801561154757600080fd5b505af115801561155b573d6000803e3d6000fd5b505050508a73ffffffffffffffffffffffffffffffffffffffff16630a8ed3db868a846040518463ffffffff167c0100000000000000000000000000000000000000000000000000000000028152600401808473ffffffffffffffffffffffffffffffffffffffff1673ffffffffffffffffffffffffffffffffffffffff1681526020018373ffffffffffffffffffffffffffffffffffffffff1673ffffffffffffffffffffffffffffffffffffffff16815260200182600019166000191681526020019350505050600060405180830381600087803b15801561163e57600080fd5b505af1158015611652573d6000803e3d6000fd5b505050508a73ffffffffffffffffffffffffffffffffffffffff1663be03847887898a73ffffffffffffffffffffffffffffffffffffffff1663507b40636040518163ffffffff167c0100000000000000000000000000000000000000000000000000000000028152600401602060405180830381600087803b1580156116d857600080fd5b505af11580156116ec573d6000803e3d6000fd5b505050506040513d602081101561170257600080fd5b81019080805190602001909291905050508e6040518563ffffffff167c0100000000000000000000000000000000000000000000000000000000028152600401808573ffffffffffffffffffffffffffffffffffffffff1673ffffffffffffffffffffffffffffffffffffffff1681526020018473ffffffffffffffffffffffffffffffffffffffff1673ffffffffffffffffffffffffffffffffffffffff16815260200183600019166000191681526020018273ffffffffffffffffffffffffffffffffffffffff1673ffffffffffffffffffffffffffffffffffffffff168152602001945050505050600060405180830381600087803b15801561180757600080fd5b505af115801561181b573d6000803e3d6000fd5b505050508a73ffffffffffffffffffffffffffffffffffffffff1663be03847887878873ffffffffffffffffffffffffffffffffffffffff166374e805e96040518163ffffffff167c0100000000000000000000000000000000000000000000000000000000028152600401602060405180830381600087803b1580156118a157600080fd5b505af11580156118b5573d6000803e3d6000fd5b505050506040513d60208110156118cb57600080fd5b81019080805190602001909291905050508e6040518563ffffffff167c0100000000000000000000000000000000000000000000000000000000028152600401808573ffffffffffffffffffffffffffffffffffffffff1673ffffffffffffffffffffffffffffffffffffffff1681526020018473ffffffffffffffffffffffffffffffffffffffff1673ffffffffffffffffffffffffffffffffffffffff16815260200183600019166000191681526020018273ffffffffffffffffffffffffffffffffffffffff1673ffffffffffffffffffffffffffffffffffffffff168152602001945050505050600060405180830381600087803b1580156119d057600080fd5b505af11580156119e4573d6000803e3d6000fd5b505050508a73ffffffffffffffffffffffffffffffffffffffff1663be03847887878873ffffffffffffffffffffffffffffffffffffffff16631566085c6040518163ffffffff167c0100000000000000000000000000000000000000000000000000000000028152600401602060405180830381600087803b158015611a6a57600080fd5b505af1158015611a7e573d6000803e3d6000fd5b505050506040513d6020811015611a9457600080fd5b81019080805190602001909291905050508e6040518563ffffffff167c0100000000000000000000000000000000000000000000000000000000028152600401808573ffffffffffffffffffffffffffffffffffffffff1673ffffffffffffffffffffffffffffffffffffffff1681526020018473ffffffffffffffffffffffffffffffffffffffff1673ffffffffffffffffffffffffffffffffffffffff16815260200183600019166000191681526020018273ffffffffffffffffffffffffffffffffffffffff1673ffffffffffffffffffffffffffffffffffffffff168152602001945050505050600060405180830381600087803b158015611b9957600080fd5b505af1158015611bad573d6000803e3d6000fd5b505050508a73ffffffffffffffffffffffffffffffffffffffff1663be0384787fffffffffffffffffffffffffffffffffffffffffffffffffffffffffffffffff888973ffffffffffffffffffffffffffffffffffffffff1663d8e27bd06040518163ffffffff167c0100000000000000000000000000000000000000000000000000000000028152600401602060405180830381600087803b158015611c5357600080fd5b505af1158015611c67573d6000803e3d6000fd5b505050506040513d6020811015611c7d57600080fd5b81019080805190602001909291905050508e6040518563ffffffff167c0100000000000000000000000000000000000000000000000000000000028152600401808573ffffffffffffffffffffffffffffffffffffffff1673ffffffffffffffffffffffffffffffffffffffff1681526020018473ffffffffffffffffffffffffffffffffffffffff1673ffffffffffffffffffffffffffffffffffffffff16815260200183600019166000191681526020018273ffffffffffffffffffffffffffffffffffffffff1673ffffffffffffffffffffffffffffffffffffffff168152602001945050505050600060405180830381600087803b158015611d8257600080fd5b505af1158015611d96573d6000803e3d6000fd5b505050508a73ffffffffffffffffffffffffffffffffffffffff1663be0384787fffffffffffffffffffffffffffffffffffffffffffffffffffffffffffffffff888973ffffffffffffffffffffffffffffffffffffffff16638f911dca6040518163ffffffff167c0100000000000000000000000000000000000000000000000000000000028152600401602060405180830381600087803b158015611e3c57600080fd5b505af1158015611e50573d6000803e3d6000fd5b505050506040513d6020811015611e6657600080fd5b81019080805190602001909291905050508e6040518563ffffffff167c0100000000000000000000000000000000000000000000000000000000028152600401808573ffffffffffffffffffffffffffffffffffffffff1673ffffffffffffffffffffffffffffffffffffffff1681526020018473ffffffffffffffffffffffffffffffffffffffff1673ffffffffffffffffffffffffffffffffffffffff16815260200183600019166000191681526020018273ffffffffffffffffffffffffffffffffffffffff1673ffffffffffffffffffffffffffffffffffffffff168152602001945050505050600060405180830381600087803b158015611f6b57600080fd5b505af1158015611f7f573d6000803e3d6000fd5b505050508a73ffffffffffffffffffffffffffffffffffffffff1663be0384788b888973ffffffffffffffffffffffffffffffffffffffff166394b059ab6040518163ffffffff167c0100000000000000000000000000000000000000000000000000000000028152600401602060405180830381600087803b15801561200557600080fd5b505af1158015612019573d6000803e3d6000fd5b505050506040513d602081101561202f57600080fd5b81019080805190602001909291905050508e6040518563ffffffff167c0100000000000000000000000000000000000000000000000000000000028152600401808573ffffffffffffffffffffffffffffffffffffffff1673ffffffffffffffffffffffffffffffffffffffff1681526020018473ffffffffffffffffffffffffffffffffffffffff1673ffffffffffffffffffffffffffffffffffffffff16815260200183600019166000191681526020018273ffffffffffffffffffffffffffffffffffffffff1673ffffffffffffffffffffffffffffffffffffffff168152602001945050505050600060405180830381600087803b15801561213457600080fd5b505af1158015612148573d6000803e3d6000fd5b505050508a73ffffffffffffffffffffffffffffffffffffffff1663be03847887888973ffffffffffffffffffffffffffffffffffffffff1663513638db6040518163ffffffff167c0100000000000000000000000000000000000000000000000000000000028152600401602060405180830381600087803b1580156121ce57600080fd5b505af11580156121e2573d6000803e3d6000fd5b505050506040513d60208110156121f857600080fd5b81019080805190602001909291905050508e6040518563ffffffff167c0100000000000000000000000000000000000000000000000000000000028152600401808573ffffffffffffffffffffffffffffffffffffffff1673ffffffffffffffffffffffffffffffffffffffff1681526020018473ffffffffffffffffffffffffffffffffffffffff1673ffffffffffffffffffffffffffffffffffffffff16815260200183600019166000191681526020018273ffffffffffffffffffffffffffffffffffffffff1673ffffffffffffffffffffffffffffffffffffffff168152602001945050505050600060405180830381600087803b1580156122fd57600080fd5b505af1158015612311573d6000803e3d6000fd5b505050508a73ffffffffffffffffffffffffffffffffffffffff1663afd925df8b8a856040518463ffffffff167c0100000000000000000000000000000000000000000000000000000000028152600401808473ffffffffffffffffffffffffffffffffffffffff1673ffffffffffffffffffffffffffffffffffffffff1681526020018373ffffffffffffffffffffffffffffffffffffffff1673ffffffffffffffffffffffffffffffffffffffff16815260200182600019166000191681526020019350505050600060405180830381600087803b1580156123f457600080fd5b505af1158015612408573d6000803e3d6000fd5b505050508a73ffffffffffffffffffffffffffffffffffffffff1663afd925df8b8a846040518463ffffffff167c0100000000000000000000000000000000000000000000000000000000028152600401808473ffffffffffffffffffffffffffffffffffffffff1673ffffffffffffffffffffffffffffffffffffffff1681526020018373ffffffffffffffffffffffffffffffffffffffff1673ffffffffffffffffffffffffffffffffffffffff16815260200182600019166000191681526020019350505050600060405180830381600087803b1580156124eb57600080fd5b505af11580156124ff573d6000803e3d6000fd5b505050508a73ffffffffffffffffffffffffffffffffffffffff16630a8ed3db8b8e876040518463ffffffff167c0100000000000000000000000000000000000000000000000000000000028152600401808473ffffffffffffffffffffffffffffffffffffffff1673ffffffffffffffffffffffffffffffffffffffff1681526020018373ffffffffffffffffffffffffffffffffffffffff1673ffffffffffffffffffffffffffffffffffffffff16815260200182600019166000191681526020019350505050600060405180830381600087803b1580156125e257600080fd5b505af11580156125f6573d6000803e3d6000fd5b505050508a73ffffffffffffffffffffffffffffffffffffffff16639d0effdb308e876040518463ffffffff167c0100000000000000000000000000000000000000000000000000000000028152600401808473ffffffffffffffffffffffffffffffffffffffff1673ffffffffffffffffffffffffffffffffffffffff1681526020018373ffffffffffffffffffffffffffffffffffffffff1673ffffffffffffffffffffffffffffffffffffffff16815260200182600019166000191681526020019350505050600060405180830381600087803b1580156126d957600080fd5b505af11580156126ed573d6000803e3d6000fd5b505050508a73ffffffffffffffffffffffffffffffffffffffff1663afd925df8b8e876040518463ffffffff167c0100000000000000000000000000000000000000000000000000000000028152600401808473ffffffffffffffffffffffffffffffffffffffff1673ffffffffffffffffffffffffffffffffffffffff1681526020018373ffffffffffffffffffffffffffffffffffffffff1673ffffffffffffffffffffffffffffffffffffffff16815260200182600019166000191681526020019350505050600060405180830381600087803b1580156127d057600080fd5b505af11580156127e4573d6000803e3d6000fd5b505050508a73ffffffffffffffffffffffffffffffffffffffff16630a8ed3db8b8d866040518463ffffffff167c0100000000000000000000000000000000000000000000000000000000028152600401808473ffffffffffffffffffffffffffffffffffffffff1673ffffffffffffffffffffffffffffffffffffffff1681526020018373ffffffffffffffffffffffffffffffffffffffff1673ffffffffffffffffffffffffffffffffffffffff16815260200182600019166000191681526020019350505050600060405180830381600087803b1580156128c757600080fd5b505af11580156128db573d6000803e3d6000fd5b505050508a73ffffffffffffffffffffffffffffffffffffffff16639d0effdb308d866040518463ffffffff167c0100000000000000000000000000000000000000000000000000000000028152600401808473ffffffffffffffffffffffffffffffffffffffff1673ffffffffffffffffffffffffffffffffffffffff1681526020018373ffffffffffffffffffffffffffffffffffffffff1673ffffffffffffffffffffffffffffffffffffffff16815260200182600019166000191681526020019350505050600060405180830381600087803b1580156129be57600080fd5b505af11580156129d2573d6000803e3d6000fd5b505050508a73ffffffffffffffffffffffffffffffffffffffff1663afd925df8b8d866040518463ffffffff167c0100000000000000000000000000000000000000000000000000000000028152600401808473ffffffffffffffffffffffffffffffffffffffff1673ffffffffffffffffffffffffffffffffffffffff1681526020018373ffffffffffffffffffffffffffffffffffffffff1673ffffffffffffffffffffffffffffffffffffffff16815260200182600019166000191681526020019350505050600060405180830381600087803b158015612ab557600080fd5b505af1158015612ac9573d6000803e3d6000fd5b505050505050505050505050505050505600a165627a7a723058202139874031f8a4afae96b2e06cf6099f3b6f1b7b630b6aa8f901778ab7ddd96a0029",
  "source": "pragma solidity ^0.4.24;\n\nimport \"@aragon/os/contracts/kernel/Kernel.sol\";\nimport \"@aragon/os/contracts/acl/ACL.sol\";\nimport \"@aragon/os/contracts/apm/Repo.sol\";\nimport \"@aragon/os/contracts/lib/ens/ENS.sol\";\nimport \"@aragon/os/contracts/lib/ens/PublicResolver.sol\";\n\nimport \"@aragon/apps-token-manager/contracts/TokenManager.sol\";\nimport \"@aragon/apps-voting/contracts/Voting.sol\";\n\nimport \"@daonuts/airdrop-duo-app/contracts/AirdropDuo.sol\";\nimport \"@daonuts/challenge-app/contracts/Challenge.sol\";\nimport \"@daonuts/subscribe-app/contracts/Subscribe.sol\";\n\ncontract TemplateApps {\n    ENS public ens;\n\n    uint constant TOKEN_UNIT = 10 ** 18;\n    address constant ANY_ENTITY = address(-1);\n\n    //namehash(\"airdrop-duo-app.open.aragonpm.eth\")\n    bytes32 constant airdropDuoAppId = 0xa9e4c5b47fe3f0e61f6a7a045848bf59d44a5eaad3fbb6274929030a2030797d;\n    //namehash(\"challenge-app.open.aragonpm.eth\")\n    bytes32 constant challengeAppId = 0x67c5438d71d05e58f99e88d6fb61ea5356b0f57106d3aba65c823267cc1cd07e;\n    //namehash(\"subscribe-app.open.aragonpm.eth\")\n    bytes32 constant subscribeAppId = 0xb6461185219d266fa4eb5f1acad9b08a010bfd1e1f6a45fe3e169f161d8d5af1;\n    //namehash(\"tip-app.open.aragonpm.eth\")\n    bytes32 constant tipAppId = 0xc75d5f393be107a3b3f2b5ed1c1fa53b7fe1f347bac8cd9de9158b94312bfd59;\n\n    event InstalledApp(address appProxy, bytes32 appId);\n\n    constructor(ENS _ens) public {\n        ens = _ens;\n    }\n\n    function install(\n        Kernel _dao, Voting _voting, TokenManager _contribManager, TokenManager _currencyManager\n    ) public {\n        ACL acl = ACL(_dao.acl());\n\n        AirdropDuo airdrop = AirdropDuo(_dao.newAppInstance(airdropDuoAppId, latestVersionAppBase(airdropDuoAppId)));\n        Challenge challenge = Challenge(_dao.newAppInstance(challengeAppId, latestVersionAppBase(challengeAppId)));\n        Subscribe subscribe = Subscribe(_dao.newAppInstance(subscribeAppId, latestVersionAppBase(subscribeAppId)));\n\n        airdrop.initialize(_contribManager, _currencyManager);\n        emit InstalledApp(airdrop, airdropDuoAppId);\n        challenge.initialize(\n          _currencyManager, 100*TOKEN_UNIT, 10*TOKEN_UNIT, 50*TOKEN_UNIT,\n          uint64(1 minutes), uint64(1 minutes), uint64(1 minutes)\n        );\n        emit InstalledApp(challenge, challengeAppId);\n        subscribe.initialize(_currencyManager, 10000*TOKEN_UNIT, uint64(30 days));\n        emit InstalledApp(subscribe, subscribeAppId);\n\n        _permissions(_dao, acl, _voting, _contribManager, _currencyManager, airdrop, challenge, subscribe);\n    }\n\n    function _permissions(\n        Kernel _dao, ACL _acl, Voting _voting, TokenManager _contribManager,\n        TokenManager _currencyManager, AirdropDuo _airdrop, Challenge _challenge,\n        Subscribe _subscribe\n    ) internal {\n\n        bytes32 APP_MANAGER_ROLE = _dao.APP_MANAGER_ROLE();\n        bytes32 CREATE_PERMISSIONS_ROLE = _acl.CREATE_PERMISSIONS_ROLE();\n        bytes32 CURRENCY_MINT_ROLE = _currencyManager.MINT_ROLE();\n        bytes32 CURRENCY_BURN_ROLE = _currencyManager.BURN_ROLE();\n\n        _acl.createPermission(_challenge, _currencyManager, CURRENCY_MINT_ROLE, this);\n        _acl.createPermission(_challenge, _currencyManager, CURRENCY_BURN_ROLE, this);\n        _acl.createPermission(_airdrop, _contribManager, _contribManager.MINT_ROLE(), _voting);\n        _acl.grantPermission(_airdrop, _currencyManager, CURRENCY_MINT_ROLE);\n        _acl.grantPermission(_subscribe, _currencyManager, CURRENCY_BURN_ROLE);\n\n        _acl.createPermission(_challenge, _airdrop, _airdrop.START_ROLE(), _voting);\n        _acl.createPermission(_challenge, _subscribe, _subscribe.SET_PRICE_ROLE(), _voting);\n        _acl.createPermission(_challenge, _subscribe, _subscribe.SET_DURATION_ROLE(), _voting);\n\n        _acl.createPermission(ANY_ENTITY, _challenge, _challenge.PROPOSE_ROLE(), _voting);\n        _acl.createPermission(ANY_ENTITY, _challenge, _challenge.CHALLENGE_ROLE(), _voting);\n        _acl.createPermission(_voting, _challenge, _challenge.SUPPORT_ROLE(), _voting);\n        _acl.createPermission(_challenge, _challenge, _challenge.MODIFY_PARAMETER_ROLE(), _voting);\n\n        _acl.setPermissionManager(_voting, _currencyManager, CURRENCY_MINT_ROLE);\n        _acl.setPermissionManager(_voting, _currencyManager, CURRENCY_BURN_ROLE);\n\n        _acl.grantPermission(_voting, _dao, APP_MANAGER_ROLE);\n        _acl.revokePermission(this, _dao, APP_MANAGER_ROLE);\n        _acl.setPermissionManager(_voting, _dao, APP_MANAGER_ROLE);\n\n        _acl.grantPermission(_voting, _acl, CREATE_PERMISSIONS_ROLE);\n        _acl.revokePermission(this, _acl, CREATE_PERMISSIONS_ROLE);\n        _acl.setPermissionManager(_voting, _acl, CREATE_PERMISSIONS_ROLE);\n    }\n\n    function latestVersionAppBase(bytes32 appId) public view returns (address base) {\n        Repo repo = Repo(PublicResolver(ens.resolver(appId)).addr(appId));\n        (,base,) = repo.getLatest();\n\n        return base;\n    }\n\n}\n",
  "sourcePath": "/home/carl/Projects/daonuts/template-apps/contracts/TemplateApps.sol",
  "compiler": {
    "name": "solc",
    "version": "0.4.24+commit.e67f0147.Emscripten.clang"
  },
  "schemaVersion": "2.0.1",
  "updatedAt": "2019-10-24T23:10:40.174Z"
}