{
  "contractName": "TemplateApps",
  "abi": [
    {
      "constant": true,
      "inputs": [],
      "name": "ens",
      "outputs": [
        {
          "name": "",
          "type": "address"
        }
      ],
      "payable": false,
      "stateMutability": "view",
      "type": "function"
    },
    {
      "inputs": [
        {
          "name": "_ens",
          "type": "address"
        }
      ],
      "payable": false,
      "stateMutability": "nonpayable",
      "type": "constructor"
    },
    {
      "anonymous": false,
      "inputs": [
        {
          "indexed": false,
          "name": "appProxy",
          "type": "address"
        },
        {
          "indexed": false,
          "name": "appId",
          "type": "bytes32"
        }
      ],
      "name": "InstalledApp",
      "type": "event"
    },
    {
      "constant": false,
      "inputs": [
        {
          "name": "_dao",
          "type": "address"
        },
        {
          "name": "_voting",
          "type": "address"
        },
        {
          "name": "_currencyTokenManager",
          "type": "address"
        }
      ],
      "name": "install",
      "outputs": [],
      "payable": false,
      "stateMutability": "nonpayable",
      "type": "function"
    },
    {
      "constant": true,
      "inputs": [
        {
          "name": "appId",
          "type": "bytes32"
        }
      ],
      "name": "latestVersionAppBase",
      "outputs": [
        {
          "name": "base",
          "type": "address"
        }
      ],
      "payable": false,
      "stateMutability": "view",
      "type": "function"
    }
  ],
  "bytecode": "0x608060405234801561001057600080fd5b5060405160208061192e83398101806040528101908080519060200190929190505050806000806101000a81548173ffffffffffffffffffffffffffffffffffffffff021916908373ffffffffffffffffffffffffffffffffffffffff160217905550506118ab806100836000396000f300608060405260043610610057576000357c0100000000000000000000000000000000000000000000000000000000900463ffffffff1680633f15457f1461005c5780638aad2c26146100b3578063c6d2c71714610136575b600080fd5b34801561006857600080fd5b506100716101a7565b604051808273ffffffffffffffffffffffffffffffffffffffff1673ffffffffffffffffffffffffffffffffffffffff16815260200191505060405180910390f35b3480156100bf57600080fd5b50610134600480360381019080803573ffffffffffffffffffffffffffffffffffffffff169060200190929190803573ffffffffffffffffffffffffffffffffffffffff169060200190929190803573ffffffffffffffffffffffffffffffffffffffff1690602001909291905050506101cc565b005b34801561014257600080fd5b5061016560048036038101908080356000191690602001909291905050506107a3565b604051808273ffffffffffffffffffffffffffffffffffffffff1673ffffffffffffffffffffffffffffffffffffffff16815260200191505060405180910390f35b6000809054906101000a900473ffffffffffffffffffffffffffffffffffffffff1681565b60008060008573ffffffffffffffffffffffffffffffffffffffff1663de2873596040518163ffffffff167c0100000000000000000000000000000000000000000000000000000000028152600401602060405180830381600087803b15801561023557600080fd5b505af1158015610249573d6000803e3d6000fd5b505050506040513d602081101561025f57600080fd5b810190808051906020019092919050505092508573ffffffffffffffffffffffffffffffffffffffff166380cd5ac37f356065541af8b2e74db8b224183c7552774bd8246b1191179719921d9c97d4c26001026102de7f356065541af8b2e74db8b224183c7552774bd8246b1191179719921d9c97d4c26001026107a3565b6040518363ffffffff167c01000000000000000000000000000000000000000000000000000000000281526004018083600019166000191681526020018273ffffffffffffffffffffffffffffffffffffffff1673ffffffffffffffffffffffffffffffffffffffff16815260200192505050602060405180830381600087803b15801561036b57600080fd5b505af115801561037f573d6000803e3d6000fd5b505050506040513d602081101561039557600080fd5b810190808051906020019092919050505091508573ffffffffffffffffffffffffffffffffffffffff166380cd5ac37fd386d2731a66fd3903d5a74ff0ea1dbb2bdb63c1a71340c2b430496acf99d5076001026104147fd386d2731a66fd3903d5a74ff0ea1dbb2bdb63c1a71340c2b430496acf99d5076001026107a3565b6040518363ffffffff167c01000000000000000000000000000000000000000000000000000000000281526004018083600019166000191681526020018273ffffffffffffffffffffffffffffffffffffffff1673ffffffffffffffffffffffffffffffffffffffff16815260200192505050602060405180830381600087803b1580156104a157600080fd5b505af11580156104b5573d6000803e3d6000fd5b505050506040513d60208110156104cb57600080fd5b810190808051906020019092919050505090508173ffffffffffffffffffffffffffffffffffffffff1663c4d66de8856040518263ffffffff167c0100000000000000000000000000000000000000000000000000000000028152600401808273ffffffffffffffffffffffffffffffffffffffff1673ffffffffffffffffffffffffffffffffffffffff168152602001915050600060405180830381600087803b15801561057957600080fd5b505af115801561058d573d6000803e3d6000fd5b505050507f2b183a501d4b1bbd30e6611ebac40ab18a00390e6c6bed324bf92a265c9ce6e3827f356065541af8b2e74db8b224183c7552774bd8246b1191179719921d9c97d4c2600102604051808373ffffffffffffffffffffffffffffffffffffffff1673ffffffffffffffffffffffffffffffffffffffff16815260200182600019166000191681526020019250505060405180910390a18073ffffffffffffffffffffffffffffffffffffffff16637a1ac61e8569021e19e0c9bab240000062278d006040518463ffffffff167c0100000000000000000000000000000000000000000000000000000000028152600401808473ffffffffffffffffffffffffffffffffffffffff1673ffffffffffffffffffffffffffffffffffffffff1681526020018381526020018281526020019350505050600060405180830381600087803b1580156106df57600080fd5b505af11580156106f3573d6000803e3d6000fd5b505050507f2b183a501d4b1bbd30e6611ebac40ab18a00390e6c6bed324bf92a265c9ce6e3817fd386d2731a66fd3903d5a74ff0ea1dbb2bdb63c1a71340c2b430496acf99d507600102604051808373ffffffffffffffffffffffffffffffffffffffff1673ffffffffffffffffffffffffffffffffffffffff16815260200182600019166000191681526020019250505060405180910390a161079b868487878686610a42565b505050505050565b6000806000809054906101000a900473ffffffffffffffffffffffffffffffffffffffff1673ffffffffffffffffffffffffffffffffffffffff16630178b8bf846040518263ffffffff167c0100000000000000000000000000000000000000000000000000000000028152600401808260001916600019168152602001915050602060405180830381600087803b15801561083e57600080fd5b505af1158015610852573d6000803e3d6000fd5b505050506040513d602081101561086857600080fd5b810190808051906020019092919050505073ffffffffffffffffffffffffffffffffffffffff16633b3b57de846040518263ffffffff167c0100000000000000000000000000000000000000000000000000000000028152600401808260001916600019168152602001915050602060405180830381600087803b1580156108ef57600080fd5b505af1158015610903573d6000803e3d6000fd5b505050506040513d602081101561091957600080fd5b810190808051906020019092919050505090508073ffffffffffffffffffffffffffffffffffffffff1663c36af4606040518163ffffffff167c0100000000000000000000000000000000000000000000000000000000028152600401600060405180830381600087803b15801561099057600080fd5b505af11580156109a4573d6000803e3d6000fd5b505050506040513d6000823e3d601f19601f8201168201806040525060a08110156109ce57600080fd5b810190809190826060018051906020019092919080516401000000008111156109f657600080fd5b82810190506020810184811115610a0c57600080fd5b8151856001820283011164010000000082111715610a2957600080fd5b5050929190505050909150508092505081915050919050565b6000808773ffffffffffffffffffffffffffffffffffffffff16638ea8dc9d6040518163ffffffff167c0100000000000000000000000000000000000000000000000000000000028152600401602060405180830381600087803b158015610aa957600080fd5b505af1158015610abd573d6000803e3d6000fd5b505050506040513d6020811015610ad357600080fd5b810190808051906020019092919050505091508673ffffffffffffffffffffffffffffffffffffffff16633d6ab68f6040518163ffffffff167c0100000000000000000000000000000000000000000000000000000000028152600401602060405180830381600087803b158015610b4a57600080fd5b505af1158015610b5e573d6000803e3d6000fd5b505050506040513d6020811015610b7457600080fd5b810190808051906020019092919050505090508673ffffffffffffffffffffffffffffffffffffffff1663be03847885878873ffffffffffffffffffffffffffffffffffffffff1663e9a9c8506040518163ffffffff167c0100000000000000000000000000000000000000000000000000000000028152600401602060405180830381600087803b158015610c0957600080fd5b505af1158015610c1d573d6000803e3d6000fd5b505050506040513d6020811015610c3357600080fd5b81019080805190602001909291905050508a6040518563ffffffff167c0100000000000000000000000000000000000000000000000000000000028152600401808573ffffffffffffffffffffffffffffffffffffffff1673ffffffffffffffffffffffffffffffffffffffff1681526020018473ffffffffffffffffffffffffffffffffffffffff1673ffffffffffffffffffffffffffffffffffffffff16815260200183600019166000191681526020018273ffffffffffffffffffffffffffffffffffffffff1673ffffffffffffffffffffffffffffffffffffffff168152602001945050505050600060405180830381600087803b158015610d3857600080fd5b505af1158015610d4c573d6000803e3d6000fd5b505050508673ffffffffffffffffffffffffffffffffffffffff1663be03847887868773ffffffffffffffffffffffffffffffffffffffff1663507b40636040518163ffffffff167c0100000000000000000000000000000000000000000000000000000000028152600401602060405180830381600087803b158015610dd257600080fd5b505af1158015610de6573d6000803e3d6000fd5b505050506040513d6020811015610dfc57600080fd5b81019080805190602001909291905050508a6040518563ffffffff167c0100000000000000000000000000000000000000000000000000000000028152600401808573ffffffffffffffffffffffffffffffffffffffff1673ffffffffffffffffffffffffffffffffffffffff1681526020018473ffffffffffffffffffffffffffffffffffffffff1673ffffffffffffffffffffffffffffffffffffffff16815260200183600019166000191681526020018273ffffffffffffffffffffffffffffffffffffffff1673ffffffffffffffffffffffffffffffffffffffff168152602001945050505050600060405180830381600087803b158015610f0157600080fd5b505af1158015610f15573d6000803e3d6000fd5b505050508673ffffffffffffffffffffffffffffffffffffffff1663be03847887858673ffffffffffffffffffffffffffffffffffffffff166374e805e96040518163ffffffff167c0100000000000000000000000000000000000000000000000000000000028152600401602060405180830381600087803b158015610f9b57600080fd5b505af1158015610faf573d6000803e3d6000fd5b505050506040513d6020811015610fc557600080fd5b81019080805190602001909291905050508a6040518563ffffffff167c0100000000000000000000000000000000000000000000000000000000028152600401808573ffffffffffffffffffffffffffffffffffffffff1673ffffffffffffffffffffffffffffffffffffffff1681526020018473ffffffffffffffffffffffffffffffffffffffff1673ffffffffffffffffffffffffffffffffffffffff16815260200183600019166000191681526020018273ffffffffffffffffffffffffffffffffffffffff1673ffffffffffffffffffffffffffffffffffffffff168152602001945050505050600060405180830381600087803b1580156110ca57600080fd5b505af11580156110de573d6000803e3d6000fd5b505050508673ffffffffffffffffffffffffffffffffffffffff1663be03847887858673ffffffffffffffffffffffffffffffffffffffff16631566085c6040518163ffffffff167c0100000000000000000000000000000000000000000000000000000000028152600401602060405180830381600087803b15801561116457600080fd5b505af1158015611178573d6000803e3d6000fd5b505050506040513d602081101561118e57600080fd5b81019080805190602001909291905050508a6040518563ffffffff167c0100000000000000000000000000000000000000000000000000000000028152600401808573ffffffffffffffffffffffffffffffffffffffff1673ffffffffffffffffffffffffffffffffffffffff1681526020018473ffffffffffffffffffffffffffffffffffffffff1673ffffffffffffffffffffffffffffffffffffffff16815260200183600019166000191681526020018273ffffffffffffffffffffffffffffffffffffffff1673ffffffffffffffffffffffffffffffffffffffff168152602001945050505050600060405180830381600087803b15801561129357600080fd5b505af11580156112a7573d6000803e3d6000fd5b505050508673ffffffffffffffffffffffffffffffffffffffff16630a8ed3db878a856040518463ffffffff167c0100000000000000000000000000000000000000000000000000000000028152600401808473ffffffffffffffffffffffffffffffffffffffff1673ffffffffffffffffffffffffffffffffffffffff1681526020018373ffffffffffffffffffffffffffffffffffffffff1673ffffffffffffffffffffffffffffffffffffffff16815260200182600019166000191681526020019350505050600060405180830381600087803b15801561138a57600080fd5b505af115801561139e573d6000803e3d6000fd5b505050508673ffffffffffffffffffffffffffffffffffffffff16639d0effdb308a856040518463ffffffff167c0100000000000000000000000000000000000000000000000000000000028152600401808473ffffffffffffffffffffffffffffffffffffffff1673ffffffffffffffffffffffffffffffffffffffff1681526020018373ffffffffffffffffffffffffffffffffffffffff1673ffffffffffffffffffffffffffffffffffffffff16815260200182600019166000191681526020019350505050600060405180830381600087803b15801561148157600080fd5b505af1158015611495573d6000803e3d6000fd5b505050508673ffffffffffffffffffffffffffffffffffffffff1663afd925df878a856040518463ffffffff167c0100000000000000000000000000000000000000000000000000000000028152600401808473ffffffffffffffffffffffffffffffffffffffff1673ffffffffffffffffffffffffffffffffffffffff1681526020018373ffffffffffffffffffffffffffffffffffffffff1673ffffffffffffffffffffffffffffffffffffffff16815260200182600019166000191681526020019350505050600060405180830381600087803b15801561157857600080fd5b505af115801561158c573d6000803e3d6000fd5b505050508673ffffffffffffffffffffffffffffffffffffffff16630a8ed3db8789846040518463ffffffff167c0100000000000000000000000000000000000000000000000000000000028152600401808473ffffffffffffffffffffffffffffffffffffffff1673ffffffffffffffffffffffffffffffffffffffff1681526020018373ffffffffffffffffffffffffffffffffffffffff1673ffffffffffffffffffffffffffffffffffffffff16815260200182600019166000191681526020019350505050600060405180830381600087803b15801561166f57600080fd5b505af1158015611683573d6000803e3d6000fd5b505050508673ffffffffffffffffffffffffffffffffffffffff16639d0effdb3089846040518463ffffffff167c0100000000000000000000000000000000000000000000000000000000028152600401808473ffffffffffffffffffffffffffffffffffffffff1673ffffffffffffffffffffffffffffffffffffffff1681526020018373ffffffffffffffffffffffffffffffffffffffff1673ffffffffffffffffffffffffffffffffffffffff16815260200182600019166000191681526020019350505050600060405180830381600087803b15801561176657600080fd5b505af115801561177a573d6000803e3d6000fd5b505050508673ffffffffffffffffffffffffffffffffffffffff1663afd925df8789846040518463ffffffff167c0100000000000000000000000000000000000000000000000000000000028152600401808473ffffffffffffffffffffffffffffffffffffffff1673ffffffffffffffffffffffffffffffffffffffff1681526020018373ffffffffffffffffffffffffffffffffffffffff1673ffffffffffffffffffffffffffffffffffffffff16815260200182600019166000191681526020019350505050600060405180830381600087803b15801561185d57600080fd5b505af1158015611871573d6000803e3d6000fd5b5050505050505050505050505600a165627a7a723058201c77c30b9af46af2650a4f9cd839c914ccc41802477904e598f9e60de97499580029",
  "source": "pragma solidity ^0.4.24;\n\nimport \"@aragon/os/contracts/kernel/Kernel.sol\";\nimport \"@aragon/os/contracts/acl/ACL.sol\";\nimport \"@aragon/os/contracts/apm/Repo.sol\";\nimport \"@aragon/os/contracts/lib/ens/ENS.sol\";\nimport \"@aragon/os/contracts/lib/ens/PublicResolver.sol\";\n\nimport \"@aragon/apps-token-manager/contracts/TokenManager.sol\";\nimport \"@aragon/apps-voting/contracts/Voting.sol\";\n\nimport \"@1hive/airdrop-app/contracts/Airdrop.sol\";\n\nimport \"@daonuts/subscription-app/contracts/Subscription.sol\";\n\ncontract TemplateApps {\n    ENS public ens;\n\n    //namehash(\"airdrop-app.open.aragonpm.eth\")\n    bytes32 constant airdropAppId = 0x356065541af8b2e74db8b224183c7552774bd8246b1191179719921d9c97d4c2;\n    //namehash(\"subscription-app.open.aragonpm.eth\")\n    bytes32 constant subscriptionAppId = 0xd386d2731a66fd3903d5a74ff0ea1dbb2bdb63c1a71340c2b430496acf99d507;\n\n    event InstalledApp(address appProxy, bytes32 appId);\n\n    constructor(ENS _ens) public {\n        ens = _ens;\n    }\n\n    function install(Kernel _dao, Voting _voting, TokenManager _currencyTokenManager) public {\n        ACL acl = ACL(_dao.acl());\n\n        Airdrop airdrop = Airdrop(_dao.newAppInstance(airdropAppId, latestVersionAppBase(airdropAppId)));\n        Subscription subscription = Subscription(_dao.newAppInstance(subscriptionAppId, latestVersionAppBase(subscriptionAppId)));\n\n        airdrop.initialize(_currencyTokenManager);\n        emit InstalledApp(airdrop, airdropAppId);\n        subscription.initialize(_currencyTokenManager, 10000e18, 30 days);\n        emit InstalledApp(subscription, subscriptionAppId);\n\n        _permissions(_dao, acl, _voting, _currencyTokenManager, airdrop, subscription);\n    }\n\n    function _permissions(\n        Kernel _dao, ACL _acl, Voting _voting, TokenManager _currencyTokenManager, Airdrop _airdrop, Subscription _subscription\n    ) internal {\n\n        bytes32 APP_MANAGER_ROLE = _dao.APP_MANAGER_ROLE();\n        bytes32 CREATE_PERMISSIONS_ROLE = _acl.CREATE_PERMISSIONS_ROLE();\n\n        _acl.createPermission(_airdrop, _currencyTokenManager, _currencyTokenManager.MINT_ROLE(), _voting);\n        _acl.createPermission(_voting, _airdrop, _airdrop.START_ROLE(), _voting);\n        _acl.createPermission(_voting, _subscription, _subscription.SET_PRICE_ROLE(), _voting);\n        _acl.createPermission(_voting, _subscription, _subscription.SET_DURATION_ROLE(), _voting);\n\n        _acl.grantPermission(_voting, _dao, APP_MANAGER_ROLE);\n        _acl.revokePermission(this, _dao, APP_MANAGER_ROLE);\n        _acl.setPermissionManager(_voting, _dao, APP_MANAGER_ROLE);\n\n        _acl.grantPermission(_voting, _acl, CREATE_PERMISSIONS_ROLE);\n        _acl.revokePermission(this, _acl, CREATE_PERMISSIONS_ROLE);\n        _acl.setPermissionManager(_voting, _acl, CREATE_PERMISSIONS_ROLE);\n    }\n\n    function latestVersionAppBase(bytes32 appId) public view returns (address base) {\n        Repo repo = Repo(PublicResolver(ens.resolver(appId)).addr(appId));\n        (,base,) = repo.getLatest();\n\n        return base;\n    }\n\n}\n",
  "sourcePath": "@daonuts/template-apps/contracts/TemplateApps.sol",
  "compiler": {
    "name": "solc",
    "version": "0.4.24+commit.e67f0147.Emscripten.clang"
  },
  "schemaVersion": "2.0.1",
  "updatedAt": "2019-10-23T15:53:11.773Z"
}